:020000040000FA
:060000000DEF01F01200FB
:020006001200E6
:08000800DACFE4FFE2CFDAFFDA
:10001000E652D768FC0ED66EF2A407D00001602B22
:10002000000E612362236323F294E552E5CFDAFFE9
:020030001100BD
:0E003200010036020000600000001000000017
:10004000D9CFE6FFE1CFD9FF020EE126C168949037
:1000500082909380D09EF28EF28CF28A070ED56E3B
:10006000D768FC0ED66ED58E8150010BDE6EDD6A30
:10007000DECF0BF0DDCF0CF0000166510B1802E172
:1000800067510C1809E042D804C068F005C069F057
:1000900006C06AF007C06BF039D800016851045CF3
:1000A0000B6E695105580C6E6A5106580D6E6B51F6
:1000B00007580E6E0B506C5D0C506D590D506E59FB
:1000C0000E506F5914E2DECF0BF0DDCF0CF064510F
:1000D0000B1802E165510C180AE0DECF64F0DDCFA9
:1000E00065F0010E641901E1655101E18270DECF16
:1000F00066F0DDCF67F0B8D7020EE15C02E2E16A9C
:10010000E552E16EE552E7CFD9FF1200D9CFE6FF05
:10011000E1CFD9FF040EE126F29A60C0DFFF010EA5
:1001200061C0DBFF020E62C0DBFF030E63C0DBFFBA
:10013000F28ADECF04F0DECF05F0DECF06F0DDCFB1
:1001400007F0DD52DD52040EE15C03E200D0E16A0B
:0C015000E552E16EE552E7CFD9FF120046
:04015C00320EF66EFB
:10016000000EF76E000EF86E00010900F550756F75
:100170000900F550766F03E1756701D03DD00900A5
:10018000F550706F0900F550716F0900F550726FEE
:1001900009000900F550E96E0900F550EA6E090002
:1001A00009000900F550736F0900F550746F0900DC
:1001B0000900F6CF77F0F7CF78F0F8CF79F070C07C
:1001C000F6FF71C0F7FF72C0F8FF0001735302E140
:1001D000745307E00900F550EE6E7307F8E27407F8
:1001E000F9D777C0F6FF78C0F7FF79C0F8FF0001B4
:0A01F0007507000E765BBFD7120002
:0601FA00000EF36E00EEA2
:1002000000F0060E01D81200EA6002D0EE6AFCD7B8
:0A021000F350E9601200EE6AFCD71B
:06021A0015EE00F025EED8
:1002200000F0F86A0A9CAEEC00F003EC00F020EC61
:0602300000F0FBD71200F4
:0A02360000000000000000000000BE
:0602400000003200000086
:00000001FF
