:020000040000FA
:06000000B3EF00F0120056
:020006000000F8
:08000800070ED56E9494020E60
:10001000CA6E3C0EBD6E0B0ECB6ECA84CC6A0CD879
:10002000FED71200FE0ED76E790ED66ED58EF2A4D4
:10003000FED7F294D59E1200D9CFE6FFE1CFD9FFCB
:10004000020EE126DE6ADD6ADECF02F0DDCF03F0CC
:100050000B0E025C000E035808E2DF50BE6EE2DFBA
:10006000DF2A010E01E3DB2AEFD70B0EDE6EDD6A1D
:10007000D9CFE9FFDACFEAFF000ED880EE54000EA8
:10008000ED5408E2DF50BE6ECDDFDF06010E01E267
:10009000DB06EED7020EE15C02E2E16AE552E16EB8
:0800A000E552E7CFD9FF120081
:0800A800060EF66E000EF76E65
:1000B000000EF86E00010900F550656F0900F5505B
:1000C000666F03E1656701D03DD00900F550606FB0
:1000D0000900F550616F0900F550626F09000900D1
:1000E000F550E96E0900F550EA6E090009000900B3
:1000F000F550636F0900F550646F09000900F6CFF1
:1001000067F0F7CF68F0F8CF69F060C0F6FF61C024
:10011000F7FF62C0F8FF0001635302E1645307E098
:100120000900F550EE6E6307F8E26407F9D767C07F
:10013000F6FF68C0F7FF69C0F8FF00016507000E11
:06014000665BBFD7120050
:0A014600000EF36E00EE00F0060E4E
:1001500001D81200EA6002D0EE6AFCD7F350E960E1
:060160001200EE6AFCD75C
:0A01660015EE00F025EE00F0F86A37
:10017000019C54EC00F0C1EC00F004EC00F0FBD763
:0201800012006B
:02018200120069
:00000001FF
