:020000040000FA
:0600000009EF01F01200FF
:020006000000F8
:08000800D9CFE6FFE1CFD9FFDB
:10001000E652956A070ED56E240EAC6E900EAB6E4E
:10002000190EAF6E1AD80FD89EAAFED79E9AAE5060
:10003000DF6EDFCFE6FF6DD8E552F6D7E552E55229
:10004000E7CFD9FF1200FE0ED76E790ED66ED58E91
:10005000F2A4FED7F294D59E1200020EE66E16D8D8
:10006000E5520E0EE66E12D8E552010EE66E0ED87F
:10007000E552060EE66E0AD8E552280EE66E06D860
:10008000E552800EE66E02D8E5521200D9CFE6FFA7
:10009000E1CFD9FFE652FE0EDB50F00BDF6EDF50F2
:1000A000836E83948386CFDF8396FE0EDB500F0B27
:1000B000DF6EDF38F00BDF6EDF50836E8394838654
:1000C000C2DF8396E552E552E7CFD9FF1200D9CFC0
:1000D000E6FFE1CFD9FFFD0EDBCFF6FFFE0EDBCF53
:1000E000F7FF0800F55011E0FD0EDBCFF6FFFE0E26
:1000F000DBCFF7FF0800F550E66E0BD8E552FD0E9A
:10010000DB2AFE0E01E3DB2AE6D7E552E7CFD9FF73
:100110001200D9CFE6FFE1CFD9FFE652FE0EDB5049
:10012000F00BDF6EDF50836E838483868CDF8396D3
:10013000FE0EDB500F0BDF6EDF38F00BDF6EDF5093
:10014000836E838483867FDF8396E552E552E7CF13
:04015000D9FF1200C1
:0C015400060EF66E000EF76E000EF86E40
:1001600000010900F550656F0900F550666F03E165
:10017000656701D03DD00900F550606F0900F5506A
:10018000616F0900F550626F09000900F550E96ED2
:100190000900F550EA6E090009000900F550636F87
:1001A0000900F550646F09000900F6CF67F0F7CF3A
:1001B00068F0F8CF69F060C0F6FF61C0F7FF62C079
:1001C000F8FF0001635302E1645307E00900F550B2
:1001D000EE6E6307F8E26407F9D767C0F6FF68C000
:1001E000F7FF69C0F8FF00016507000E665BBFD727
:0201F0001200FB
:0E01F200000EF36E00EE00F0060E01D81200B3
:10020000EA6002D0EE6AFCD7F350E9601200EE6AB1
:02021000FCD719
:0E02120015EE00F025EE00F0F86A019CAAEC53
:0E02200000F017EC01F004EC00F0FBD7120028
:02022E001200BC
:00000001FF
