:020000040000FA
:0600000065EF01F01200A3
:020006000000F8
:08000800D9CFE6FFE1CFD9FFDB
:10001000160EE1263F0EF36E020EF3CFDBFF030E4A
:10002000DB6A060EF36E040EF3CFDBFF050EDB6A10
:100030005B0EF36E060EF3CFDBFF070EDB6A4F0E8F
:10004000F36E080EF3CFDBFF090EDB6A660EF36E6C
:100050000A0EF3CFDBFF0B0EDB6A6D0EF36E0C0E98
:10006000F3CFDBFF0D0EDB6A7D0EF36E0E0EF3CFCA
:10007000DBFF0F0EDB6A070EF36E100EF3CFDBFF14
:10008000110EDB6A7F0EF36E120EF3CFDBFF130E41
:10009000DB6A6F0EF36E140EF3CFDBFF150EDB6A17
:1000A000946A958C83BC2FD0DE6ADD6ADECF14F0B3
:1000B000DDCF15F0D890155004E60A0E145C000E42
:1000C000155821E2D950020F146EDACF15F0020E46
:1000D000086E096ADECF0DF0DDCF0EF028EC01F0DE
:1000E00014500624E96E15500720EA6EEF50826E18
:1000F000C80EE66EE66A12D8E552E552DF2A010E16
:1001000001E3DB2AD3D7CED7160EE15C02E2E16A27
:10011000E552E16EE552E7CFD9FF1200D9CFE6FFF5
:10012000E1CFD9FF040EE126DE6ADD6ADECF14F0EE
:10013000DDCF15F0FD0EDBCF16F0FE0EDBCF17F096
:1001400015501718E8AE02D0173404D01650145CBE
:100150001750155824E2020EDB6A030EDB6A020E0A
:10016000DBCF14F0030EDBCF15F0DECF16F0DDCFC2
:1001700017F015501718E8AE02D0173404D01650F7
:10018000145C1750155806E2020EDB2A030E01E339
:10019000DB2AE5D7DF2A010E01E3DB2AC7D7040EED
:1001A000E15C02E2E16AE552E16EE552E7CFD9FF98
:0201B00012003B
:0E01B200060EF66E000EF76E000EF86E0001DF
:1001C0000900F550656F0900F550666F03E165673A
:1001D00001D03DD00900F550606F0900F550616F06
:1001E0000900F550626F09000900F550E96E090039
:1001F000F550EA6E090009000900F550636F090027
:10020000F550646F09000900F6CF67F0F7CF68F08A
:10021000F8CF69F060C0F6FF61C0F7FF62C0F8FF79
:100220000001635302E1645307E00900F550EE6EEC
:100230006307F8E26407F9D767C0F6FF68C0F7FF05
:1002400069C0F8FF00016507000E665BBFD71200AA
:1002500009C013F008C012F008500D02F4CF07F0E7
:10026000F3CF06F009500E02F4CF09F0F3CF08F0F7
:100270000D02F3500726F4500822E86A09221250B2
:100280000E02F3500726F4500822E86A09220EAE47
:100290004EEF01F01250085E1350095A13AE000CD5
:0A02A0000D50085E0E50095A000CC4
:0602AA00000EF36E00EEF1
:1002B00000F0060E01D81200EA6002D0EE6AFCD708
:0A02C000F350E9601200EE6AFCD76B
:0602CA0015EE00F025EE28
:1002D00000F0F86A019CD9EC00F073EC01F004EC3A
:0602E00000F0FBD7120044
:0202E600120004
:00000001FF
