:020000040000FA
:060000000EEF01F01200FA
:020006000000F8
:08000800949094929494956A7F
:100010000F0EE66E2FD8E552010EE66E2BD8E55294
:10002000380EE66E27D8E552060EE66E23D8E55266
:10003000800EE66E1FD8E552480EE66E30D8E552C7
:10004000650EE66E2CD8E5526C0EE66E28D8E552A9
:100050006C0EE66E24D8E5526F0EE66E20D8E5529F
:10006000200EE66E1CD8E552210EE66E18D8E55239
:10007000E3D71200D9CFE6FFE1CFD9FFFE0EDB5068
:10008000836E829082928284640EE66EE66A1CD849
:10009000E552E5528294E552E7CFD9FF1200D9CF5D
:1000A000E6FFE1CFD9FFFE0EDB50836E82808292A5
:1000B0008284640EE66EE66A07D8E552E5528294C1
:1000C000E552E7CFD9FF1200D9CFE6FFE1CFD9FF44
:1000D000040EE126DE6ADD6ADECF00F0DDCF01F03E
:1000E000FD0EDBCF02F0FE0EDBCF03F00150031854
:1000F000E8AE02D0033404D00250005C0350015833
:1001000024E2020EDB6A030EDB6A020EDBCF00F094
:10011000030EDBCF01F0DECF02F0DDCF03F00150A4
:100120000318E8AE02D0033404D00250005C035040
:10013000015806E2020EDB2A030E01E3DB2AE5D7B3
:10014000DF2A010E01E3DB2AC7D7040EE15C02E2DD
:0E015000E16AE552E16EE552E7CFD9FF1200F9
:02015E00060E8B
:10016000F66E000EF76E000EF86E00010900F550F5
:10017000656F0900F550666F03E1656701D03DD0FA
:100180000900F550606F0900F550616F0900F550E6
:10019000626F09000900F550E96E0900F550EA6E3A
:1001A000090009000900F550636F0900F550646FFC
:1001B00009000900F6CF67F0F7CF68F0F8CF69F0D3
:1001C00060C0F6FF61C0F7FF62C0F8FF0001635333
:1001D00002E1645307E00900F550EE6E6307F8E2B0
:1001E0006407F9D767C0F6FF68C0F7FF69C0F8FF7A
:0C01F00000016507000E665BBFD712001F
:0401FC00000EF36E90
:1002000000EE00F0060E01D81200EA6002D0EE6A9D
:0C021000FCD7F350E9601200EE6AFCD746
:04021C0015EE00F0EB
:1002200025EE00F0F86A059CAFEC00F01CEC01F044
:0802300004EC00F0FBD7120002
:020238001200B2
:00000001FF
