:020000040000FA
:0600000086EF01F0120082
:020006000000F8
:08000800949094929494956A7F
:100010000F0EC16EF00E936E0E0EE66EEED8E55228
:10002000010EE66EEAD8E552060EE66EE6D8E55217
:10003000380EE66EE2D8E552800EE66EDED8E55266
:10004000FE0E816EEE0E815C04E1370EE66EEAD89C
:10005000E552DE0E815C04E1380EE66EE3D8E5522F
:10006000BE0E815C04E1390EE66EDCD8E5527E0EF0
:10007000815C04E12F0EE66ED5D8E552320EE66EB5
:10008000E66A70D8E552E552FD0E816EED0E815C98
:1000900004E1340EE66EC6D8E552DD0E815C04E163
:1000A000350EE66EBFD8E552BD0E815C04E1360E1A
:1000B000E66EB8D8E5527D0E815C04E1780EE66EFE
:1000C000B1D8E552320EE66EE66A4CD8E552E552FA
:1000D000FB0E816EEB0E815C04E1310EE66EA2D860
:1000E000E552DB0E815C04E1320EE66E9BD8E552F0
:1000F000BB0E815C04E1330EE66E94D8E5527B0EB4
:10010000815C04E12D0EE66E8DD8E552320EE66E6E
:10011000E66A28D8E552E552F70E816EE70E815C5B
:1001200004E1010EE66E69D8E552D70E815C04E168
:10013000300EE66E77D8E552B70E815C04E13D0ED5
:10014000E66E70D8E552770E815C04E12B0EE66E08
:1001500069D8E552320EE66EE66A04D8E552E552F9
:100160006FD71200D9CFE6FFE1CFD9FF040EE12609
:10017000DE6ADD6ADECF00F0DDCF01F0FD0EDBCF01
:1001800002F0FE0EDBCF03F001500318E8AE02D000
:10019000033404D00250005C0350015824E2020EE4
:1001A000DB6A030EDB6A020EDBCF00F0030EDBCF4F
:1001B00001F0DECF02F0DDCF03F001500318E8AE0E
:1001C00002D0033404D00250005C0350015806E210
:1001D000020EDB2A030E01E3DB2AE5D7DF2A010E3C
:1001E00001E3DB2AC7D7040EE15C02E2E16AE552D3
:1001F000E16EE552E7CFD9FF1200D9CFE6FFE1CF9C
:10020000D9FFFE0EDB50836E829082928284640E50
:10021000E66EE66AA7DFE552E5528294E552E7CF43
:10022000D9FF1200D9CFE6FFE1CFD9FFFE0EDB5098
:10023000836E828082928284640EE66EE66A92DF2A
:0E024000E552E5528294E552E7CFD9FF120055
:02024E00060E9A
:10025000F66E000EF76E000EF86E00010900F55004
:10026000656F0900F550666F03E1656701D03DD009
:100270000900F550606F0900F550616F0900F550F5
:10028000626F09000900F550E96E0900F550EA6E49
:10029000090009000900F550636F0900F550646F0B
:1002A00009000900F6CF67F0F7CF68F0F8CF69F0E2
:1002B00060C0F6FF61C0F7FF62C0F8FF0001635342
:1002C00002E1645307E00900F550EE6E6307F8E2BF
:1002D0006407F9D767C0F6FF68C0F7FF69C0F8FF89
:0C02E00000016507000E665BBFD712002E
:0402EC00000EF36E9F
:1002F00000EE00F0060E01D81200EA6002D0EE6AAD
:0C030000FCD7F350E9601200EE6AFCD755
:04030C0015EE00F0FA
:1003100025EE00F0F86A059C27EC01F094EC01F062
:0803200004EC00F0FBD7120011
:020328001200C1
:00000001FF
