:020000040000FA
:060000002FEF02F01200D8
:020006000000F8
:08000800D9CFE6FFE1CFD9FFDB
:100010004A0EE126770EF36E020EF3CFDBFF030EDE
:10002000DB6A7C0EF36E040EF3CFDBFF050EDB6A9A
:10003000390EF36E060EF3CFDBFF070EDB6A5E0EA2
:10004000F36E080EF3CFDBFF090EDB6A790EF36E59
:100050000A0EF3CFDBFF0B0EDB6A710EF36E0C0E94
:10006000F3CFDBFF0D0EDB6A760EF36E0E0EF3CFD1
:10007000DBFF0F0EDB6A300EF36E100EF3CFDBFFEB
:10008000110EDB6A1E0EF36E120EF3CFDBFF130EA2
:10009000DB6A380EF36E140EF3CFDBFF150EDB6A4E
:1000A000370EF36E160EF3CFDBFF170EDB6A5C0E16
:1000B000F36E180EF3CFDBFF190EDB6A730EF36ECF
:1000C0001A0EF3CFDBFF1B0EDB6A500EF36E1C0E15
:1000D000F3CFDBFF1D0EDB6A6D0EF36E1E0EF3CF4A
:1000E000DBFF1F0EDB6A780EF36E200EF3CFDBFF13
:1000F000210EDB6A3E0EF36E220EF3CFDBFF230EE2
:10010000DB6A6E0EF36E240EF3CFDBFF250EDB6A87
:10011000880EF36E260EF3CFDBFF270EDB6A830E0D
:10012000F36E280EF3CFDBFF290EDB6AC60EF36EEB
:100130002A0EF3CFDBFF2B0EDB6AA10EF36E2C0E23
:10014000F3CFDBFF2D0EDB6A860EF36E2E0EF3CFA0
:10015000DBFF2F0EDB6A8E0EF36E300EF3CFDBFF6C
:10016000310EDB6A890EF36E320EF3CFDBFF330EF6
:10017000DB6ACF0EF36E340EF3CFDBFF350EDB6A96
:10018000E10EF36E360EF3CFDBFF370EDB6AC70EE0
:10019000F36E380EF3CFDBFF390EDB6AC80EF36E59
:1001A0003A0EF3CFDBFF3B0EDB6AA30EF36E3C0E81
:1001B000F3CFDBFF3D0EDB6A8C0EF36E3E0EF3CF0A
:1001C000DBFF3F0EDB6AAF0EF36E400EF3CFDBFFBB
:1001D000410EDB6A920EF36E420EF3CFDBFF430E4D
:1001E000DB6A870EF36E440EF3CFDBFF450EDB6A4E
:1001F000C10EF36E460EF3CFDBFF470EDB6A910EA6
:10020000F36E480EF3CFDBFF490EDB6A956A946A02
:10021000DE6ADD6ADECF14F0DDCF15F0D890155020
:1002200004E6150E145C000E155837E2D950020F83
:10023000146EDACF15F0020E086E096ADECF0DF0EB
:10024000DDCF0EF0F2EC01F014500624E96E1550EB
:100250000720EA6EEF50826ED950260F146EDACF67
:1002600015F0020E086E096ADECF0DF0DDCF0EF03C
:10027000F2EC01F014500624E96E15500720EA6EE6
:10028000EF50836EC80EE66EE66A12D8E552E5526C
:10029000DF2A010E01E3DB2ABDD7BAD74A0EE15CA3
:1002A00002E2E16AE552E16EE552E7CFD9FF1200C2
:1002B000D9CFE6FFE1CFD9FF040EE126DE6ADD6A81
:1002C000DECF14F0DDCF15F0FD0EDBCF16F0FE0E05
:1002D000DBCF17F015501718E8AE02D0173404D052
:1002E0001650145C1750155824E2020EDB6A030EF8
:1002F000DB6A020EDBCF14F0030EDBCF15F0DECF8E
:1003000016F0DDCF17F015501718E8AE02D01734ED
:1003100004D01650145C1750155806E2020EDB2A62
:10032000030E01E3DB2AE5D7DF2A010E01E3DB2A16
:10033000C7D7040EE15C02E2E16AE552E16EE552E4
:06034000E7CFD9FF120017
:0A034600060EF66E000EF76E000EB4
:10035000F86E00010900F550656F0900F550666FF1
:1003600003E1656701D03DD00900F550606F0900D9
:10037000F550616F0900F550626F09000900F550F2
:10038000E96E0900F550EA6E090009000900F55010
:10039000636F0900F550646F09000900F6CF67F03C
:1003A000F7CF68F0F8CF69F060C0F6FF61C0F7FFE3
:1003B00062C0F8FF0001635302E1645307E00900E3
:1003C000F550EE6E6307F8E26407F9D767C0F6FFF1
:1003D00068C0F7FF69C0F8FF00016507000E665BA3
:0403E000BFD7120071
:0C03E40009C013F008C012F008500D0210
:1003F000F4CF07F0F3CF06F009500E02F4CF09F066
:10040000F3CF08F00D02F3500726F4500822E86AF3
:10041000092212500E02F3500726F4500822E86A0F
:1004200009220EAE18EF02F01250085E1350095A5E
:0E04300013AE000C0D50085E0E50095A000C61
:02043E00000EAE
:10044000F36E00EE00F0060E01D81200EA6002D052
:0E045000EE6AFCD7F350E9601200EE6AFCD7AA
:02045E0015EE99
:1004600000F025EE00F0F86A019CA3EC01F03DECF1
:0A04700002F004EC00F0FBD71200CC
:02047A0012006E
:00000001FF
