:020000040000FA
:06000000C7EF02F0120040
:020006000000F8
:0800080094909492956A0D0E8C
:10001000C16E880EC06EC1D9B50EE66E050EE66ED5
:10002000D1D9E552E552C00EE66EEED9E552AA0EE0
:10003000E66E050EE66EC6D9E552E5528A0EE66E0C
:10004000E3D9E55207D8CA0EE66EDED9E552AED83E
:10005000F5D71200D9CFE6FFE1CFD9FF080EE12690
:10006000030EC26EC2B2FED7C282C450E66ED95031
:10007000020FE96EDACFEAFFE552E750EE6EED6A65
:10008000020EDBCF10F0030EDBCF11F010C011F029
:10009000106A020E10C0DBFF030E11C0DBFFC3505D
:1000A000E76E020EDBCF10F0030EDBCF11F0E7504E
:1000B0001026000E1122020E10C0DBFF030E11C02D
:1000C000DBFFDE6ADD6ADECF10F0DDCF11F0D89005
:1000D000115004E6040E105C000E11583EE2020EB0
:1000E000DBCF12F0030EDBCF13F00A0E0D6E0E6A9B
:1000F00012C008F013C009F07BEC02F004C012F04B
:1001000005C013F0300E1226000E1322D950040F32
:10011000106EDACF11F0DE501024E96EDD501120A0
:10012000EA6E12C0EFFF0A0E106E116A020EDBCFEC
:1001300008F0030EDBCF09F010C00DF011C00EF077
:100140007BEC02F0020E08C0DBFF030E09C0DBFFF0
:10015000DF2A010E01E3DB2AB6D7030EDE6EDD6A6D
:10016000DECF10F0DDCF11F00001800E111414E18C
:10017000D950040F106EDACF11F0DE501024E96E62
:10018000DD501120EA6EEF50E66E52D9E552DF06DF
:10019000010E01E2DB06E4D7080EE15C02E2E16A4F
:1001A000E552E16EE552E7CFD9FF1200D9CFE6FF65
:1001B000E1CFD9FF080EE126070EC26EC2B2FED70C
:1001C000C282C450E66ED950020FE96EDACFEAFF60
:1001D000E552E750EE6EED6A020EDBCF10F0030E33
:1001E000DBCF11F010C011F0106A020E10C0DBFF5F
:1001F000030E11C0DBFFC350E76E020EDBCF10F021
:10020000030EDBCF11F0E7501026000E1122020E74
:1002100010C0DBFF030E11C0DBFFDE6ADD6ADECF3C
:1002200010F0DDCF11F0D890115004E6040E105CF0
:10023000000E11583EE2020EDBCF12F0030EDBCFB0
:1002400013F00A0E0D6E0E6A12C008F013C009F00A
:100250007BEC02F004C012F005C013F0300E122641
:10026000000E1322D950040F106EDACF11F0DE50B9
:100270001024E96EDD501120EA6E12C0EFFF0A0E65
:10028000106E116A020EDBCF08F0030EDBCF09F00F
:1002900010C00DF011C00EF07BEC02F0020E08C091
:1002A000DBFF030E09C0DBFFDF2A010E01E3DB2ABF
:1002B000B6D7030EDE6EDD6ADECF10F0DDCF11F0B3
:1002C0000001800E111414E1D950040F106EDACF22
:1002D00011F0DE501024E96EDD501120EA6EEF506F
:1002E000E66EA6D8E552DF06010E01E2DB06E4D792
:1002F000080EE15C02E2E16AE552E16EE552E7CF09
:10030000D9FF1200D9CFE6FFE1CFD9FF040EE126D5
:10031000DE6ADD6ADECF10F0DDCF11F0FD0EDBCF3F
:1003200012F0FE0EDBCF13F011501318E8AE02D01E
:10033000133404D01250105C1350115824E2020EF2
:10034000DB6A030EDB6A020EDBCF10F0030EDBCF9D
:1003500011F0DECF12F0DDCF13F011501318E8AE1C
:1003600002D0133404D01250105C1350115806E21E
:10037000020EDB2A030E01E3DB2AE5D7DF2A010E9A
:1003800001E3DB2AC7D7040EE15C02E2E16AE55231
:10039000E16EE552E7CFD9FF12000E0EE66E34D8BB
:1003A000E552010EE66E30D8E552060EE66E2CD808
:1003B000E552380EE66E28D8E552800EE66E24D857
:1003C000E5521200D9CFE6FFE1CFD9FFFD0EDBCF1A
:1003D000F6FFFE0EDBCFF7FF0800F55011E0FD0E33
:1003E000DBCFF6FFFE0EDBCFF7FF0800F550E66E21
:1003F0001FD8E552FD0EDB2AFE0E01E3DB2AE6D70D
:10040000E552E7CFD9FF1200D9CFE6FFE1CFD9FF00
:10041000FE0EDB50836E82908282640EE66EE66A88
:1004200071DFE552E5528292E552E7CFD9FF120023
:10043000D9CFE6FFE1CFD9FFFE0EDB50836E82807D
:100440008282640EE66EE66A5DDFE552E5528292D4
:08045000E552E7CFD9FF1200CD
:08045800060EF66E000EF76EB1
:10046000000EF86E00010900F550656F0900F550A7
:10047000666F03E1656701D03DD00900F550606FFC
:100480000900F550616F0900F550626F090009001D
:10049000F550E96E0900F550EA6E090009000900FF
:1004A000F550636F0900F550646F09000900F6CF3D
:1004B00067F0F7CF68F0F8CF69F060C0F6FF61C071
:1004C000F7FF62C0F8FF0001635302E1645307E0E5
:1004D0000900F550EE6E6307F8E26407F9D767C0CC
:1004E000F6FF68C0F7FF69C0F8FF00016507000E5E
:0604F000665BBFD712009D
:0A04F600006A0EAE84EF02F00D6CF8
:100500000E1EE86A0E22001E09AE8CEF02F0086C87
:10051000091EE86A0922001EA1EC02F009BE9CEF48
:1005200002F000AE000C086C091EE86A0922046C97
:10053000051EE86A0522000C00BE93EF02F0018858
:02054000FF0CAE
:0E054200056A046A100EE76ED8900836093676
:10055000043605360D50045C0E50055805E30D5069
:0E056000045E0E50055A082AE72EF0D712004E
:02056E00000E7D
:10057000F36E00EE00F0060E01D81200EA6002D021
:0E058000EE6AFCD7F350E9601200EE6AFCD779
:02058E0015EE68
:1005900000F025EE00F0F86A019C2CEC02F0E0EC93
:0A05A00002F004EC00F0FBD712009B
:0605AA004144432D414EC7
:1005B00031203D20004144432D414E30203D20005C
:0205C000120027
:00000001FF
