:020000040000FA
:0600000055EF01F01200B3
:020006000000F8
:08000800D9CFE6FFE1CFD9FFDB
:100010000E0EE126D950020FE96EDACFEAFF410E4B
:10002000EE6E730EEE6E680EEE6E690EEE6E660E7E
:10003000EE6E200EEE6E480EEE6E610EEE6E730EDC
:10004000EE6E610EEE6E6E0EEE6EEE6A949094940D
:10005000956A8FD8DE6ADD6AD950020F006EDACF5A
:1000600001F0DE500024E96EDD500120EA6EEF5011
:1000700026E0D950020F006EDACF01F0DE500024E6
:10008000E96EDD500120EA6EEF50200804E1C00E59
:10009000E66E84D8E552D950020F006EDACF01F037
:1000A000DE500024E96EDD500120EA6EEF50E66E6E
:1000B00089D8E552DF2A010E01E3DB2ACDD7010EF4
:1000C000E66E6CD8E552C6D70E0EE15C02E2E16A3C
:1000D000E552E16EE552E7CFD9FF1200D9CFE6FF36
:1000E000E1CFD9FF040EE126DE6ADD6ADECF00F043
:1000F000DDCF01F0FD0EDBCF02F0FE0EDBCF03F013
:1001000001500318E8AE02D0033404D00250005C62
:100110000350015824E2020EDB6A030EDB6A020E72
:10012000DBCF00F0030EDBCF01F0DECF02F0DDCF3E
:1001300003F001500318E8AE02D0033404D002509B
:10014000005C0350015806E2020EDB2A030E01E3B5
:10015000DB2AE5D7DF2A010E01E3DB2AC7D7040E2D
:10016000E15C02E2E16AE552E16EE552E7CFD9FFD8
:1001700012000E0EE66E12D8E552010EE66E0ED893
:10018000E552060EE66E0AD8E552380EE66E06D83F
:10019000E552800EE66E02D8E5521200D9CFE6FF96
:1001A000E1CFD9FFFE0EDB50836E82908284640E15
:1001B000E66EE66A93DFE552E5528294E552E7CFB8
:1001C000D9FF1200D9CFE6FFE1CFD9FFFE0EDB50F9
:1001D000836E82808284640EE66EE66A7FDFE5527B
:0C01E000E5528294E552E7CFD9FF1200EF
:0401EC00060EF66E97
:1001F000000EF76E000EF86E00010900F550656FF5
:100200000900F550666F03E1656701D03DD0090034
:10021000F550606F0900F550616F0900F550626F8D
:1002200009000900F550E96E0900F550EA6E090071
:1002300009000900F550636F0900F550646F09006B
:100240000900F6CF67F0F7CF68F0F8CF69F060C02B
:10025000F6FF61C0F7FF62C0F8FF0001635302E1DF
:10026000645307E00900F550EE6E6307F8E2640797
:10027000F9D767C0F6FF68C0F7FF69C0F8FF000153
:0A0280006507000E665BBFD7120091
:06028A00000EF36E00EE11
:1002900000F0060E01D81200EA6002D0EE6AFCD728
:0A02A000F350E9601200EE6AFCD78B
:0602AA0015EE00F025EE48
:1002B00000F0F86A059CF6EC00F063EC01F004EC49
:0602C00000F0FBD7120064
:0202C600120024
:00000001FF
