:020000040000FA
:0600000058EF01F01200B0
:020006000000F8
:08000800D9CFE6FFE1CFD9FFDB
:10001000110EE126D950040FE96EDACFEAFF480E3F
:10002000EE6E650EEE6E6C0EEE6EEE6E6F0EEE6E9A
:10003000200EEE6E570EEE6E6F0EEE6E720EEE6EC0
:100040006C0EEE6E640EEE6E210EEE6EEE6A949005
:1000500094929494956A0E0EE66E56D8E552010E6F
:10006000E66E52D8E552380EE66E4ED8E552060ED0
:10007000E66E4AD8E552C00EE66E46D8E5520D0E41
:10008000F36E020EF3CFDBFF030EDB6ADE6ADD6A7E
:10009000DECF00F0DDCF01F0020EDBCF02F0030E69
:1000A000DBCF03F001500318E8AE02D0033404D0D4
:1000B0000250005C0350015814E2D950040F006E46
:1000C000DACF01F0DE500024E96EDD500120EA6E47
:1000D000EF50E66E2ED8E552DF2A010E01E3DB2A4F
:1000E000D7D7800EE66E10D8E5522D0EE66E21D8D9
:1000F000E552FBD7110EE15C02E2E16AE552E16EE6
:10010000E552E7CFD9FF1200D9CFE6FFE1CFD9FF03
:10011000FE0EDB50836E829082928284640EE66EC5
:10012000E66A1CD8E552E5528294E552E7CFD9FF42
:100130001200D9CFE6FFE1CFD9FFFE0EDB50836E70
:10014000828082928284640EE66EE66A07D8E55267
:10015000E5528294E552E7CFD9FF1200D9CFE6FFEE
:10016000E1CFD9FF040EE126DE6ADD6ADECF00F0C2
:10017000DDCF01F0FD0EDBCF02F0FE0EDBCF03F092
:1001800001500318E8AE02D0033404D00250005CE2
:100190000350015824E2020EDB6A030EDB6A020EF2
:1001A000DBCF00F0030EDBCF01F0DECF02F0DDCFBE
:1001B00003F001500318E8AE02D0033404D002501B
:1001C000005C0350015806E2020EDB2A030E01E335
:1001D000DB2AE5D7DF2A010E01E3DB2AC7D7040EAD
:1001E000E15C02E2E16AE552E16EE552E7CFD9FF58
:0201F0001200FB
:0E01F200060EF66E000EF76E000EF86E00019F
:100200000900F550656F0900F550666F03E16567F9
:1002100001D03DD00900F550606F0900F550616FC5
:100220000900F550626F09000900F550E96E0900F8
:10023000F550EA6E090009000900F550636F0900E6
:10024000F550646F09000900F6CF67F0F7CF68F04A
:10025000F8CF69F060C0F6FF61C0F7FF62C0F8FF39
:100260000001635302E1645307E00900F550EE6EAC
:100270006307F8E26407F9D767C0F6FF68C0F7FFC5
:1002800069C0F8FF00016507000E665BBFD712006A
:10029000000EF36E00EE00F0060E01D81200EA60C8
:1002A00002D0EE6AFCD7F350E9601200EE6AFCD788
:1002B00015EE00F025EE00F0F86A059CF9EC00F070
:0C02C00066EC01F004EC00F0FBD712002B
:0202CC0012001E
:00000001FF
