:020000040000FA
:0600000069EF01F012009F
:020006000000F8
:08000800946A67D8820EE66ECF
:100010009BD8E552C30EE66E020EE66E73D8E5522B
:10002000E552C00EE66E90D8E552B20EE66E020EB4
:10003000E66E68D8E552E552010EE66E85D8E552C7
:10004000E5D71200D9CFE6FFE1CFD9FF040EE126B4
:10005000DE6ADD6ADECF00F0DDCF01F0FD0EDBCF22
:1000600002F0FE0EDBCF03F001500318E8AE02D021
:10007000033404D00250005C0350015824E2020E05
:10008000DB6A030EDB6A020EDBCF00F0030EDBCF70
:1000900001F0DECF02F0DDCF03F001500318E8AE2F
:1000A00002D0033404D00250005C0350015806E231
:1000B000020EDB2A030E01E3DB2AE5D7DF2A010E5D
:1000C00001E3DB2AC7D7040EE15C02E2E16AE552F4
:1000D000E16EE552E7CFD9FF1200020EE66E34D88A
:1000E000E5520E0EE66E30D8E552010EE66E2CD8C3
:1000F000E552060EE66E28D8E552280EE66E24D8A4
:10010000E5521200D9CFE6FFE1CFD9FFFD0EDBCFDC
:10011000F6FFFE0EDBCFF7FF0800F55011E0FD0EF5
:10012000DBCFF6FFFE0EDBCFF7FF0800F550E66EE3
:1001300036D8E552FD0EDB2AFE0E01E3DB2AE6D7B8
:10014000E552E7CFD9FF1200D9CFE6FFE1CFD9FFC3
:10015000E652FE0EDB50F00BDF6EDF50826E8290B7
:100160008282640EE66EE66A6DDFE552E5528292A7
:10017000FE0EDB500F0BDF6EDF38F00BDF6EDF5053
:10018000826E82908282640EE66EE66A5BDFE552E2
:10019000E5528292E552E552E7CFD9FF1200D9CF5E
:1001A000E6FFE1CFD9FFE652FE0EDB50F00BDF6E2B
:1001B000DF50826E82808282640EE66EE66A42DFE3
:1001C000E552E5528292FE0EDB500F0BDF6EDF38F8
:1001D000F00BDF6EDF50826E82808282640EE66EEC
:1001E000E66A30DFE552E5528292E552E552E7CF0A
:0401F000D9FF120021
:0C01F400060EF66E000EF76E000EF86EA0
:1002000000010900F550656F0900F550666F03E1C4
:10021000656701D03DD00900F550606F0900F550C9
:10022000616F0900F550626F09000900F550E96E31
:100230000900F550EA6E090009000900F550636FE6
:100240000900F550646F09000900F6CF67F0F7CF99
:1002500068F0F8CF69F060C0F6FF61C0F7FF62C0D8
:10026000F8FF0001635302E1645307E00900F55011
:10027000EE6E6307F8E26407F9D767C0F6FF68C05F
:10028000F7FF69C0F8FF00016507000E665BBFD786
:0202900012005A
:0E029200000EF36E00EE00F0060E01D8120012
:1002A000EA6002D0EE6AFCD7F350E9601200EE6A11
:0202B000FCD779
:0E02B2002A2A203420426974204D6F64652092
:1002C0002A2A0048656C6C6F20576F726C6420217D
:0102D000002D
:0E02D20015EE00F025EE00F0F86A059CFAEC3F
:0E02E00000F077EC01F004EC00F0FBD7120008
:0202EE001200FC
:00000001FF
